:10000000010274FFF5B074FFF5A074AAF5907400B6
:0F001000F58011B17590AB75B0FE118375B0FF1F
:10001F0075A0FE11B175A0FF7590AA11B17590AEC4
:10002F0075B0FB118375B0FF75A0FB11B175A0FF03
:10003F007590AA11B17590BA75B0EF118375B0FFB5
:10004F0075A0EF11B175A0FF7590AA11B17590EA67
:10005F0075B0BF118375B0FF75A0BF11B175A0FF4B
:0F006F007590AA11B1011479097A077B05DBFEA0
:0F007E00DAFCD9FA22758067117675807F1176CA
:0F008D00758007117675807D117675806D1176FF
:0F009C00758066117675804F117675805B1176D1
:1000AB0075800611762275804F117675805B1176FF
:0600BB007580061176229B
:00000001FF
